:03000000023ABA07
:0C3ABA00787FE4F6D8FD758107023B011F
:1032C5006100000000FFFFFFFFFFFF004348010012
:1032D500571F0000291E010380000000090000009F
:1032E50000000000000000000000010101010101D3
:1032F5000101010101010101010119353846408033
:1033050032700E16D50800000000001600000000FF
:1033150000000000000000000000000000000000A8
:103325000000000000000000000000000000000098
:103335000000000000000000000000000000000088
:10334500000000DB0000000000000000000000009D
:103355000000000000000000000000000000000068
:103365000000000000000000000000000000000058
:103375000000000000000000000000000000000048
:103385000000000000000000000000000000000038
:103395000000000000000000000000000000000028
:1033A5000000000000000000000000000000000018
:1033B5000000000000000000000000000000000008
:0433C5000000000004
:0B313000900100EBF0A3EAF0A3E9F02F
:10313B00900176E0FEA3E0FF900175E02FFF900178
:10314B0074E03EFE900179E02FFF900178E03E9015
:10315B000103F0A3EFF090017FE0FF90017EE02FE1
:10316B00FFE433FE900180E07C002FFFEC3E9001EA
:10317B0005F0A3EFF0E47B0AFAF9F890016CE0FCA0
:10318B00A3E0FDA3E0FEA3E0FF121D4F900100E0C2
:10319B00FBA3E0FAA3E0F9EF121C13E47B0AFAF9A4
:1031AB00F890016CE0FCA3E0FDA3E0FEA3E0FF12AE
:1031BB001D4FE4FB7A01F9F8121D4F900100E0FB63
:1031CB00A3E0FAA3E0F9900001EF121C2590017225
:1031DB00E0FEA3E0900002121C25900104E0900099
:1031EB0003121C25EEC4F8540FC868FFAD079001FD
:1031FB0003E02D900004121C2590017DE09000054A
:10320B00121C25900106E0900006121C2590017CF3
:10321B00E0C4F8540FC868FFAC07900105E02C9090
:10322B000007121C25900175E0900008121C2590D8
:10323B000177E0900009121C2590017EE0540FC429
:10324B0054F0FFA3E0540F2F90000A121C2590019D
:10325B0076E0C4F8540FC868FFAC07900174E07EA9
:10326B00007806C333CE33CED8F92CFF90017EE025
:10327B00C4540F25E025E02FFFA3E0C4540F2F907B
:10328B00000B121C25900173E090000C121C259072
:10329B00017DE090000D121C2590017CE02D90002B
:1032AB000E121C25900181E025E04418FFA3E025B8
:0A32BB00E025E04F900011021C25F1
:0B3BCA00900100EBF0A3EAF0A3E9F08B
:103BD500E4FFFE900100E0FBA3E0FAA3E0F98E828A
:103BE500758300121BE62FFF0EEEB47FE6C3E49F3C
:103BF500FF900100E0FBA3E0FAA3E0F990007FEF5E
:103C0500121C25E4FFFEEE2480FDE433FC90010048
:103C1500E0FBA3E0FAA3E0F98D828C83121BE62F6B
:103C2500FF0EEEB47FE0C3E49FFF900100E0FBA32D
:0C3C3500E0FAA3E0F99000FFEF021C256C
:103FED0000010000000000000001000100000001C0
:103FFD0000010002000000020001000300000003A8
:10400D0000020007000000070002000B0000000B7B
:10401D000002000F0000000F0004001F0000001F31
:1033C90044018C0000000044018600000000440113
:0533D90090000000005F
:1042F10005010005110005100005290015360015FE
:024301003A0080
:0533DE004201A2DF8E98
:10366300749D9001A2F07403A3F07B017D027A01A3
:0436730079A27F15A4
:10367700900100EFF0A3EDF0A3EBF0A3EAF0A3E9CC
:01368700F052
:10368800E4A3F07D407F1C7EC21241B6900101E0A8
:103698006402704F7D0C7F187EC21241B67D047F94
:1036A800197EC21241B6900100E0FD7F347EC2123D
:1036B80041B6900102E0FBA3E0FAA3E0F9121BCDAA
:1036C800FD7F347EC21241B6900102E0FBA3E0FA0E
:1036D800A3E0F9900001121BE6FD7F347EC212417F
:1036E800B680727D0E7F187EC21241B6900101E04D
:1036F8002406FD7F197EC21241B6900100E0FD7FCD
:10370800347EC21241B6900101E0FD7F347EC212C0
:1037180041B6E4FD7F347EC21241B6E4900105F063
:10372800900101E0FF900105E0C39F50289001023D
:10373800E0FBA3E0FAA3E0F9121BCDFD7F347EC2C3
:103748001241B6900103E475F001121CAE90010518
:10375800E004F080CB7F017E001241EDE4FD7F188C
:053768007EC20241B623
:100003007F647E001241ED9001A274FFF0A374019E
:10001300F0FB12366F9001A274FBF0A37401F0FBA6
:1000230012366F9001A274FFF0A37402F07B01FDFE
:100033001236719001A274FBF0A37401F0FB123627
:100043006F74FF1236659001A274FBF0A37401F084
:10005300FB12366F9001A274FFF0740412366B909A
:1000630001A274FBF0A37401F0FB12366F9001A29E
:1000730074FFF0A3740512366C9001A274FBF0A315
:100083007401F0FB12366F9001A274D7F0A37431A0
:1000930012366C9001A274D8F0A3747E12366C7F72
:1000A300647E001241ED9001A274FFF0E412366BFE
:1000B3009001A274FBF0A37401F0FB12366F900160
:1000C300A274BA1236689001A27436F0E412366B49
:1000D3009001A274B0F0E412366B9001A274D3F0D5
:1000E300A3740812366C9001A274D4F0A3740E1298
:1000F300366C9001A274D5F0A3740F12366C900184
:10010300A274D6F0A3744812366C9001A274D7F08F
:10011300E412366B9001A274D9F0E412366B9001AD
:10012300A274FBF0A37401F0FB12366F9001A2746A
:10013300FFF0A374EE12366C9001A27440F0E41247
:10014300366B9001A27441F0E412366B9001A274F5
:1001530042F0E412366B9001A274FBF0A37401F039
:10016300FB12366F9001A274FFF0A37401F0FB122F
:10017300366F9001A274FBF0A37401F0FB12366F8B
:100183009001A27401F0A3745512366C9001A2740D
:1001930004F0A3740C12366C9001A27405F0A374DE
:1001A3003A12366C9001A27406F0A3745012366CA6
:1001B3009001A27407F0A374D012366C9001A2745C
:1001C3000AF0A3740F12366C9001A2740CF0A3749E
:1001D3000612366C9001A2740DF0A3747F12366C74
:1001E3009001A2740EF0A3747F12366C9001A27476
:1001F3000FF0A3747012366C9001A27410F0A37404
:100203006312366C9001A27411F0A3743C12366C25
:100213009001A27412F0A3745C12366C9001A27464
:1002230013F0A3745A12366C9001A27414F0A374E1
:100233005A12366C9001A27415F0A3746012366CD6
:100243009001A27416F0A314F07B017A0179A27DC8
:1002530002FF1236779001A27417F0A37415F07B96
:10026300017A0179A27D02FF1236779001A27423ED
:10027300F0E412366B9001A27424F0E412366B9012
:1002830001A27425F0E412366B9001A27426F0E407
:1002930012366B9001A27427F0E412366B9001A220
:1002A3007428F0E412366B9001A27444F0E4123621
:1002B3006B9001A27445F0E412366B9001A2744670
:1002C300F0E412366B9001A2745BF0A374CA123689
:1002D3006C9001A2745CF0E412366B9001A2745D21
:1002E300F0E412366B9001A2745EF0A3742D123603
:1002F3006C9001A2745FF0A3741B12366C9001A280
:100303007460F0A374D512366C9001A27461F0A3EB
:1003130074F712366C9001A2746CF0A374AB1236AE
:100323006C9001A2746DF0A3744412366C9001A218
:1003330074FFF0A3740512366C9001A274FBF0A352
:100343007401F0FB12366FE49001A2F0A3743F1224
:10035300366C9001A27401F0A3743F12366C9001C5
:10036300A27402F0A3743F12366C9001A27403F0DE
:10037300A3743F12366C9001A27404F0A374381274
:10038300366C9001A27405F0A3743F12366C900191
:10039300A27406F0A3743F12366C9001A27407F0A6
:1003A300A3741912366C9001A27408F0A3741D1281
:1003B300366C9001A27409F0A3743F12366C90015D
:1003C300A2740AF0A3743F12366C9001A2740BF06E
:1003D300A3741B12366C9001A2740CF0A374171251
:1003E300366C9001A2740DF0A3743F12366C900129
:1003F300A2740EF0A3743F12366C9001A2740FF036
:10040300A3740812366C9001A27410F0A3743F1207
:10041300366C9001A27411F0A31412366C9001A2F1
:100423007412F0A3743F12366C9001A27413F0A3FC
:10043300743F12366C9001A27414F0A3743F123609
:100443006C9001A27415F0A3743F12366C9001A254
:100453007416F0A3743F12366C9001A27417F0A3C4
:10046300743F12366C9001A27418F0A374381236DC
:100473006C9001A27419F0A31412366C9001A2744B
:100483001AF0A3741C12366C9001A2741BF0A374AF
:100493003F12366C9001A2741CF0A3743F12366CA9
:1004A3009001A2741DF0A3741A12366C9001A27409
:1004B3001EF0A3741612366C9001A2741FF0A3747D
:1004C3003F12366C9001A27420F0A3743F12366C75
:1004D3009001A27421F0A3743F12366C9001A274B0
:1004E30022F0A3743F12366C9001A27423F0A3741C
:1004F3000612366C9001A27424F0A3743F12366C7A
:100503009001A27425F0A3740E12366C9001A274AC
:1005130026F0A3743F12366C9001A27427F0A374E3
:100523003F12366C9001A27454F0A3740612366C19
:100533009001A27455F0A3740512366C9001A27455
:1005430056F0A3740412366C9001A27458123668E4
:100553009001A27459F0A3741B12366C9001A2741B
:100563005AF0A3741B12366C9001A2745BF0A3744F
:1005730001F0FB12366F9001A2745CF0A374321287
:10058300366C9001A2745EF0A3741812366C90015D
:10059300A2745FF0A3742012366C9001A27460F011
:1005A300A3742B12366C9001A27461F0A3742C1205
:1005B300366C9001A27462F0A3741812366C900129
:1005C300A27463F0A37401F0FB12366F9001A2745E
:1005D30064F0A3743212366C9001A27465F0E412D5
:1005E300366B9001A27466F0A3744412366C9001CA
:1005F300A27467F0A3741112366C9001A27468F0B0
:10060300A37401F0FB12366F9001A27469F0A37416
:1006130001F0FB12366F9001A2746AF0A374041206
:10062300366C9001A2746BF0A3742C12366C90019B
:10063300A2746CF0A3740812366C9001A2746DF06E
:10064300A3740812366C9001A27478F0E412366B2E
:100653009001A27479F0E412366B9001A2747EF0DB
:10066300E412366B9001A2747FF0E412366B9001B2
:10067300A27480F0E412366B9001A27481F0E4124C
:10068300366B9001A2748DF0E412366B9001A27464
:100693008EF0E412366B9001A2748FF0A374C01233
:1006A300366C9001A27490F0A3747312366C9001AF
:1006B300A27491F0A3741012366C9001A27492F09C
:1006C300A3740712366C9001A27496F0A3741112EE
:1006D300366C9001A27497F0A3741412366C9001D7
:1006E300A27498F0E412366B9001A27499F0E412AC
:1006F300366B9001A2749AF0E412366B9001A274E7
:100703009BF0A3746112366C9001A2749CF0A374E5
:1007130015F07B017A0179A27D02FF1236779001F1
:10072300A2749DF0A3743012366C9001A2749FF0F2
:10073300A3740F12366C9001A274A2F0A374B012CA
:10074300366C9001A274A7F0A3740A12366C900160
:10075300A274A9F0E412366B9001A274AAF0A374F8
:100763007012366C9001A274ABF0A374DA12366C7B
:100773009001A274ACF0A374FF12366C9001A274C2
:10078300AEF0A374F412366C9001A274AFF0A374AC
:100793004012366C9001A274B0F0A3747F12366CD1
:1007A3009001A274B1F0A3741612366C9001A27476
:1007B300B2F0A3745312366C9001A274B3F0E41236
:1007C300366B9001A274B4F0A3742A12366C9001B4
:1007D300A274B5F0A3743A12366C9001A274B6F009
:1007E300A374F012366C9001A274BCF0A37485124A
:1007F300366C9001A274BDF0A374F412366C9001B0
:10080300A274BEF0A3743312366C9001A274BFF0CD
:10081300A3741312366C9001A274C0F0A374771200
:10082300366C9001A274C1F0A3747712366C9001F8
:10083300A274C2F0A3747712366C9001A274C3F051
:10084300A3747712366C9001A274C4F0A374771268
:10085300366C9001A274C5F0A3747712366C9001C4
:10086300A274C6F0A3747712366C9001A274C7F019
:10087300A3747712366C9001A274C8F0A374AA1201
:10088300366C9001A274C9F0A3742A12366C9001DD
:10089300A274CAF0E412366B9001A274CBF0A37475
:1008A300AA12366C9001A274CCF0A3749212366C27
:1008B3009001A274CDF0E412366B9001A274CEF0D5
:1008C300A3741812366C9001A274CFF0A37488122B
:1008D300366C9001A274D0F0A374AA12366C900106
:1008E300A274D1F0E412366B9001A274D2F0E41238
:1008F300366B9001A274D3F0E412366B9001A274AC
:10090300D6F0A37402F07B017A0179A2FD7F151260
:1009130036779001A274EDF0E412366B9001A27465
:10092300EEF0E412366B9001A274EFF0A374701230
:10093300366C9001A274FA1236689001A274FFF02B
:10094300E412366B9001A274FFF0A37401F0FB1262
:10095300366F9001A274FBF0A37401F0FB12366FA3
:100963009001A27475F0E412366B9001A27476F0D4
:10097300E412366B9001A27477F0E412366B9001A7
:10098300A27478F0A3742C12366C9001A27479F0DF
:10099300E412366B9001A2747AF0A3744F12366C92
:1009A3009001A2747BF0E412366B9001A2747CF088
:1009B300A3746912366C9001A2747DF0E412366B55
:1009C3009001A2747EF0A30412366C9001A2747F8E
:1009D300F0E412366B9001A27480F0A37492123685
:1009E3006C9001A27481F0E412366B9001A27482C0
:1009F300F0A374A312366C9001A27483F0E4123650
:100A03006B9001A27484F0A374B312366C9001A2AC
:100A13007485F0E412366B9001A27486F0A374C15E
:100A230012366C9001A27487F0E412366B9001A227
:100A33007488F0A374F312366C9001A27489F0A346
:100A43007401F0FB12366F9001A2748AF0A3741B39
:100A530012366C9001A2748BF0A37401F0FB123672
:100A63006F9001A2748CF0A3745A12366C9001A299
:100A7300748DF0A37401F0FB12366F9001A2748E93
:100A8300F0A3748B12366C9001A2748FF0A37401DF
:100A9300F0FB12366F9001A27490F0A374D9123652
:100AA3006C9001A27491F0A37402F07B017A017936
:100AB300A2FD7F151236779001A27492F0A37416EB
:100AC30012366C9001A27493F0A37402F07B017A46
:100AD3000179A2FD7F151236779001A27494F0A3D9
:100AE300741812366C9001A27495F0A37402F07B13
:100AF300017A0179A2FD7F151236779001A27496CF
:100B0300F0A3744E12366C9001A27497F0A3740292
:100B1300F07B017A0179A2FD7F151236779001A24D
:100B23007498F0A3748812366C9001A27499F0A3A0
:100B33007402F07B017A0179A2FD7F15123677905A
:100B430001A2749AF0A374AC12366C9001A2749B48
:100B5300F0A37402F07B017A0179A2FD7F151236AE
:100B6300779001A2749CF0A374DD12366C12366385
:100B73009001A2749EF0A37401F0FB12366F9001F2
:100B8300A2749F1236689001A274A0F0A3742E126F
:100B9300366C9001A274A21236689001A274A3F07D
:100BA300A3743C12366C9001A274A41236689001AF
:100BB300A274A5F0A3744C12366C9001A274A61211
:100BC30036689001A274A7F0A3745D12366C90018D
:100BD300A274A91236689001A274AAF0A3747012C9
:100BE300366C9001A274AB1236689001A274ACF01B
:100BF300A3748812366C9001A274AD12366890010A
:100C0300A274AEF0A374A812366C9001A274AF1252
:100C130036689001A274B0F0A374C812366C9001C8
:100C2300A274B11236689001A274B2F0A374FF12D9
:100C3300366C9001A274B3F0E412366B9001A27487
:100C4300B4F0E412366B9001A274B5F0E412366B83
:100C53009001A274B6F0A3742C12366C9001A274A6
:100C6300B7F0E412366B9001A274B8F0A3744F127C
:100C7300366C9001A274B9F0E412366B9001A27441
:100C8300BAF0A3746912366C9001A274BBF0E4123B
:100C9300366B9001A274BCF0A3747F12366C900182
:100CA300A274BDF0E412366B9001A274BEF0A3747B
:100CB3009212366C9001A274BFF0E412366B90016D
:100CC300A274C0F0A374A312366C9001A274C1F095
:100CD300E412366B9001A274C2F0A374B312366CA3
:100CE3009001A274C3F0E412366B9001A274C4F0B5
:100CF300A374C112366C9001A274C5F0E412366B72
:100D03009001A274C6F0A374F312366C9001A2741E
:100D1300C7F0A37401F0FB12366F9001A274C8F000
:100D2300A3741B12366C9001A274C9F0A37401F072
:100D3300FB12366F9001A274CAF0A3745A12366C78
:100D43009001A274CBF0A37401F0FB12366F9001F3
:100D5300A274CCF0A3748B12366C9001A274CDF004
:100D6300A37401F0FB12366F9001A274CEF0A3744A
:100D7300D912366C9001A274CFF0A37402F07B01F8
:100D83007A0179A2FD7F151236779001A274D0F013
:100D9300A3741612366C9001A274D1F0A37402F0FE
:100DA3007B017A0179A2FD7F151236779001A27437
:100DB300D2F0A3741812366C9001A274D3F0A3740A
:100DC30002F07B017A0179A2FD7F1512367790013B
:100DD300A274D4F0A3744E12366C9001A274D5F0B1
:100DE300A37402F07B017A0179A2FD7F1512367795
:100DF3009001A274D6F0A3748812366C9001A27489
:100E0300D7F0A37402F07B017A0179A2FD7F15125A
:100E130036779001A274D8F0A374AC12366C9001AB
:100E2300A274D9F0A37402F07B017A0179A2FD7F49
:100E3300151236779001A274DAF0A374DD12366CC2
:100E43009001A274DB1236689001A274DCF0A374E3
:100E530001F0FB12366F9001A274DD123668900127
:100E6300A274DEF0A3742E12366C9001A274DF120A
:100E730036689001A274E0F0A3743C12366C9001C2
:100E8300A274E11236689001A274E2F0A3744C12CA
:100E9300366C9001A274E31236689001A274E4F0F8
:100EA300A3745D12366C9001A274E512366890014A
:100EB300A274E6F0A3747012366C9001A274E71268
:100EC30036689001A274E8F0A3748812366C90011E
:100ED300A274E91236689001A274EAF0A374A8120E
:100EE300366C9001A274EB1236689001A274ECF098
:100EF300A374C812366C9001A274ED123668900187
:100F0300A274EEF0A374FF12366C9001A274EFF09A
:100F1300E412366B9001A274F0F0E412366B900188
:100F2300A274F1F0E412366B9001A274F2F0A37490
:100F33002C12366C9001A274F3F0E412366B90011C
:100F4300A274F4F0A3744F12366C9001A274F5F0FE
:100F5300E412366B9001A274F6F0A3746912366C36
:100F63009001A274F7F0E412366B9001A274F8F0CA
:100F7300A3747F12366C9001A274F9F0E412366BFD
:100F83009001A274FAF0A3749212366C9001A274C9
:100F9300FFF0A37402F07B017A0179A2FD7F1512A1
:100FA30036779001A274FBF0A37401F0FB12366F45
:100FB300E49001A2F012366B9001A27401F0A374C5
:100FC300A312366C9001A27402F0E412366B900106
:100FD300A27403F0A374B312366C9001A27404F0EC
:100FE300E412366B9001A27405F0A374C112366C3F
:100FF3009001A27406F0E412366B9001A27407F01C
:10100300A374F312366C9001A27408F0A37401F078
:10101300FB12366F9001A27409F0A3741B12366C95
:101023009001A2740AF0A37401F0FB12366F9001D1
:10103300A2740BF0A3745A12366C9001A2740CF0D4
:10104300A37401F0FB12366F9001A2740DF0A37428
:101053008B12366C9001A2740EF0A37401F0FB1294
:10106300366F9001A2740FF0A374D912366C9001FD
:10107300A27410F0A37402F07B017A0179A2FD7FC0
:10108300151236779001A27411F0A3741612366C00
:101093009001A27412F0A37402F07B017A0179A289
:1010A300FD7F151236779001A27413F0A374181202
:1010B300366C9001A27414F0A37402F07B017A01E0
:1010C30079A2FD7F151236779001A27415F0A374EF
:1010D3004E12366C9001A27416F0A37402F07B01D9
:1010E3007A0179A2FD7F151236779001A27417F069
:1010F300A3748812366C9001A27418F0A37402F0E2
:101103007B017A0179A2FD7F151236779001A274D3
:1011130019F0A374AC12366C9001A2741AF0A37484
:1011230002F07B017A0179A2FD7F151236779001D7
:10113300A2741BF0A374DD12366C9001A2741C120E
:1011430036689001A2741DF0A37401F0FB12366F90
:101153009001A2741E1236689001A2741FF0A3744A
:101163002E12366C9001A274201236689001A2747C
:1011730021F0A3743C12366C9001A27422123668DB
:101183009001A27423F0A3744C12366C9001A274E4
:10119300241236689001A27425F0A3745D12366C94
:1011A3009001A274261236689001A27427F0A374EA
:1011B3007012366C9001A274281236689001A274E2
:1011C30029F0A3748812366C9001A2742A1236682F
:1011D3009001A2742BF0A374A812366C9001A27430
:1011E3002D1236689001A2742FF0A374C812366CC6
:1011F3009001A274301236689001A27431F0A37486
:10120300FF12366C9001A27432F0E412366B900137
:10121300A27433F0E412366B9001A27434F0E4123A
:10122300366B9001A27435F0A3742C12366C9001C6
:10123300A27436F0E412366B9001A27437F0A374F3
:101243004F12366C9001A27438F0E412366B9001A1
:10125300A27439F0A3746912366C9001A2743AF047
:10126300E412366B9001A2743BF0A3747F12366CC8
:101273009001A2743DF0E412366B9001A2743FF02A
:10128300A3749212366C9001A27440F0E412366B90
:101293009001A27441F0A374A312366C9001A2745E
:1012A30042F0E412366B9001A27443F0A374B312BC
:1012B300366C9001A27444F0E412366B9001A27470
:1012C30045F0A374C112366C9001A27446F0E41287
:1012D300366B9001A27447F0A374F312366C90013D
:1012E300A27448F0A37401F0FB12366F9001A2744C
:1012F30049F0A3741B12366C9001A2744AF0A374D4
:1013030001F0FB12366F9001A2744BF0A3745A12D2
:10131300366C9001A2744CF0A37401F0FB12366F8B
:101323009001A2744DF0A3748B12366C9001A274D9
:101333004EF0A37401F0FB12366F9001A2744FF0CC
:10134300A374D912366C9001A27450F0A37402F006
:101353007B017A0179A2FD7F151236779001A27481
:1013630051F0A3741612366C9001A27452F0A37458
:1013730002F07B017A0179A2FD7F15123677900185
:10138300A27453F0A3741812366C9001A27454F033
:10139300A37402F07B017A0179A2FD7F15123677DF
:1013A3009001A27455F0A3744E12366C9001A2748E
:1013B30056F0A37402F07B017A0179A2FD7F151226
:1013C30036779001A27458F0A3748812366C90019A
:1013D300A27459F0A37402F07B017A0179A2FD7F14
:1013E300151236779001A2745AF0A374AC12366CBE
:1013F3009001A2745BF0A37402F07B017A0179A2DD
:10140300FD7F151236779001A2745CF0A374DD1290
:10141300366C9001A2745D1236689001A2745EF07E
:10142300A37401F0FB12366F9001A2745F12366849
:101433009001A27460F0A3742E12366C9001A27412
:10144300611236689001A27462F0A3743C12366C88
:101453009001A274631236689001A27464F0A374BD
:101463004C12366C9001A274651236689001A27416
:1014730066F0A3745D12366C9001A274671236682D
:101483009001A27468F0A3747012366C9001A27478
:10149300691236689001A2746AF0A3748812366CDC
:1014A3009001A2746B1236689001A2746CF0A3745D
:1014B300A812366C9001A2746D1236689001A27462
:1014C3006EF0A374C812366C9001A2746F12366862
:1014D3009001A27470F0A374FF12366C9001A27491
:1014E30071F0E412366B9001A27472F0E412366B61
:1014F3009001A27473F0E412366B9001A27474F03D
:10150300A3742C12366C9001A27475F0E412366B3E
:101513009001A27476F0A3744F12366C9001A274FA
:1015230077F0E412366B9001A27478F0A374691219
:10153300366C9001A27479F0E412366B9001A274B8
:101543007AF0A3747F12366C9001A2747BF0E412DC
:10155300366B9001A2747CF0A3749212366C9001E6
:10156300A2747DF0E412366B9001A2747EF0A37432
:10157300A312366C9001A2747FF0E412366B9001D3
:10158300A27480F0A374B312366C9001A27481F03C
:10159300E412366B9001A27482F0A374C112366C0C
:1015A3009001A27483F0E412366B9001A27484F06C
:1015B300A374F312366C9001A27485F0A37401F046
:1015C300FB12366F9001A27486F0A3741B12366C63
:1015D3009001A27487F0A37401F0FB12366F90019F
:1015E300A27488F0A3745A12366C9001A27489F025
:1015F300A37401F0FB12366F9001A2748AF0A30466
:1016030012366C9001A2748BF0A37401F0FB1236B6
:101613006F9001A2748CF0A374D912366C9001A25E
:10162300748DF0A37402F07B017A0179A2FD7F151A
:101633001236779001A2748EF0A3741612366C9052
:1016430001A2748FF0A37402F07B017A0179A2FDE9
:101653007F151236779001A27490F0A37418123696
:101663006C9001A27491F0A37402F07B017A01796A
:10167300A2FD7F151236779001A27492F0A3744EE7
:1016830012366C9001A27493F0A37402F07B017A7A
:101693000179A2FD7F151236779001A27494F0A30D
:1016A300748812366C9001A27495F0A37402F07BD7
:1016B300017A0179A2FD7F151236779001A2749603
:1016C300F0A374AC12366C9001A27497F0A3740269
:1016D300F07B017A0179A2FD7F151236779001A282
:1016E3007498F0A374DD12366C9001A274991236CB
:1016F300689001A2749AF0A37401F0FB12366F9004
:1017030001A2749B1236689001A2749CF0A3742EFC
:1017130012366C1236639001A2749EF0A3743C12CD
:10172300366C9001A2749F1236689001A274A0F0E7
:10173300A3744C12366C9001A274A2123668900105
:10174300A274A3F0A3745D12366C9001A274A41268
:1017530036689001A274A5F0A3747012366C9001E0
:10176300A274A61236689001A274A7F0A37488121B
:10177300366C9001A274A91236689001A274AAF083
:10178300A374A812366C9001A274AB123668900150
:10179300A274ACF0A374C812366C9001A274AD129B
:1017A30036689001A274AEF0A374FF12366C9001F8
:1017B300A274AFF0E412366B9001A274B0F0E4129D
:1017C300366B9001A274B1F0E412366B9001A274EF
:1017D300B2F0A3742C12366C9001A274B3F0E4122D
:1017E300366B9001A274B4F0A3744F12366C90015F
:1017F300A274B5F0E412366B9001A274B6F0A37430
:101803006912366C9001A274B7F0E412366B900142
:10181300A274B8F0A3747F12366C9001A274B9F06D
:10182300E412366B9001A274BAF0A3749212366C70
:101833009001A274BBF0E412366B9001A274BCF069
:10184300A374A312366C9001A274BDF0E412366B3C
:101853009001A274BEF0A374B312366C9001A2740B
:10186300BFF0E412366B9001A274C0F0A3041236E9
:101873006C9001A274C1F0E412366B9001A274C2A1
:10188300F0A374F312366C9001A274C3F0A3740135
:10189300F0FB12366F9001A274C4F0A3741B1236CE
:1018A3006C9001A274C5F0A37401F0FB12366F9023
:1018B30001A274C6F0A3745A12366C9001A274C7C5
:1018C300F0A37401F0FB12366F9001A274C8F0A369
:1018D300748B12366C9001A274C9F0A37401F0FBEF
:1018E30012366F9001A274CAF0A374D912366C90A9
:1018F30001A274CBF0A37402F07B017A0179A2FDFB
:101903007F151236779001A274CCF0A374161236A9
:101913006C9001A274CDF0A37402F07B017A01797B
:10192300A2FD7F151236779001A274CEF0A374182E
:1019330012366C9001A274CFF0A37402F07B017A8B
:101943000179A2FD7F151236779001A274D0F0A31E
:10195300744E12366C9001A274D1F0A37402F07B22
:10196300017A0179A2FD7F151236779001A274D214
:10197300F0A3748812366C9001A274D3F0A374029E
:10198300F07B017A0179A2FD7F151236779001A2CF
:1019930074D4F0A374AC12366C9001A274D5F0A386
:1019A3007402F07B017A0179A2FD7F1512367790DC
:1019B30001A274D6F0A374DD12366C9001A274D721
:1019C3001236689001A274D8F0A37401F0FB1236AA
:1019D3006F9001A274D91236689001A274DAF0A351
:1019E300742E12366C9001A274DB1236689001A239
:1019F30074DCF0A3743C12366C9001A274DD1236D1
:101A0300689001A274DEF0A3744C12366C9001A2AC
:101A130074DF1236689001A274E0F0A3745D12368D
:101A23006C9001A274E11236689001A274E2F0A3F3
:101A3300747012366C9001A274E31236689001A29E
:101A430074E4F0A3748812366C9001A274E5123624
:101A5300689001A274E6F0A374A812366C9001A2F8
:101A630074E71236689001A274E8F0A374C81236C2
:101A73006C9001A274E91236689001A274EAF0A393
:101A830074FF12366C9001A274FFF0E412366B906F
:101A930001A274FBF0A37401F0FB12366F7FC87EC2
:101AA300001241ED9042F4E493FF7BFF7A4279F513
:101AB3007D021236777F787E001241ED9042FAE480
:101AC30093FF7BFF7A4279FB7D021236777F647E38
:041AD300000241EDDF
:103D1000FFFF0000000000000000000000000000A5
:103D20000000000000000000000000000000000093
:103D3000FFFF000000000000000000000000000085
:103D40000000000000000000000000000000000073
:103D5000FFFF000000000000000000000000000065
:103D60000000000000000000000000000000000053
:0933E30046019C010000000003FA
:10418B001241B690017FE0FD7F041241B690018091
:10419B00E0FD0F1241B67F0890017EE0FD1241B6A3
:0B41AB007D0F0F1241B60F1241B60F3E
:0741B6008F828E83EDF022E1
:1042C3007D017F347EA01241B67F0A7E001241ED4C
:0442D3007FB17EB881
:0742D7008F828E83E0FF22BD
:0741E6001241B67F017E00CB
:1041ED00EF1FAA0670011E4A6013E4FCFDC3ED9497
:0D41FD005EEC940150EA0DBD00010C80F055
:01420A002291
:103F5300900183E060097B017A0079361231307B6E
:103F6300017A007900123BCA7D037F8E7EC0124125
:103F7300B6E4FBFA74002BF58274003AF583E0FD96
:103F83007F907EC01241B60BBB00010AE4B503E487
:0D3F9300EAB401E07D027F8E7EC00241B6DF
:103B46007D137F557E901241B67D807F571241B618
:103B5600E4FD0F1241B67D400F1241B67D030F12F0
:103B660041B67DFF0F1241B67D987F5D1241B67D4D
:103B7600FF7F511241B61241AD7D130F1241B67D42
:103B8600FF0F1241B67D800F1241B6E4FD0F1241C0
:103B9600B67D400F1241B67D030F1241B67D7F0FF1
:103BA6001241B67DFF0F1241B67D980F1241B67DC8
:103BB600FF1241AD1241AD0F1241B67D207F2E7E20
:043BC600B00241B652
:103DC7007D077F8E7EB01241B67D770F1241B67D9B
:103DD700F17F147ED11241B67D1F7F567E9012412E
:103DE700B67D987F621241B67F147ED11242D7EF1B
:103DF7004408FD7F141241B61242D7EF54FBFD7FF2
:103E0700141241B61F1242D7EF54FEFD7F13024131
:013E1700B6F4
:10426F00EF7F147ED160081242D7EF54F780061209
:0C427F0042D7EF4408FD7F141241B62224
:10428B00EF7F147ED160081242D7EF4404800612F0
:0C429B0042D7EF54FBFD7F141241B62205
:1042A700EF7F137ED160081242D7EF4401800612D8
:0C42B70042D7EF54FEFD7F131241B622E7
:103C4100E4FDFF7EB01241B67D077F8C1241B67D47
:103C5100770F1241B690018AE0FCB401057D070F90
:103C61008009EC70097D777F8E7EB01241B67D7739
:103C71007F8F7EB01241B67D027F137ED11241B695
:103C81007D190F1241B67DC20F1241B67D207F1002
:103C91001241B67DFF7F291241B27D7F7F067E9062
:0C3CA1001241E67DFF7F067E900241B6D6
:10412200900100121E11000000001242C3AD077F71
:10413200127ED21241B67FB27EB81242D7AD077F4D
:10414200147ED21241B67FB37EB81242D7AD077F3A
:06415200157ED20241B609
:10402D00900100121E1100000000900104121E11DB
:10403D00000000007D357F087EB81241B67D017FFE
:10404D00347EA01241B67F0A7E001241ED7FB07E14
:0F405D00B81242D7EF5401B401037F01227F0054
:01406C002231
:103A21007F8B7ED21242D7EF7D00FC7F8C7ED2123B
:103A310042D7ED2FFDE43CFCED25E0FDEC33FC7FAE
:103A4100961242D7EF900102F0A3E4F07F977ED265
:103A51001242D7900103E02FF0900102E03400F010
:103A61007F0C7EC21242D7EF900100F0A3E4F07FF9
:103A71000D7EC21242D7900101E02FF0900100E0CB
:103A81003400F07F061242D7EF7B00FA7F077EC237
:103A91001242D7EB2FFBE43AFAAE04AF05900100D6
:103AA100E0B5060FA3E0B5070AA3E06A7003A3E03F
:083AB1006B60037F01227F001E
:013AB90022EA
:102BFA00900100121E1100000000900104121E1123
:102C0A00000000001242C3E4FCFDFE900100121E07
:102C1A00057FB27EB81242D7E4FCFDFEC004C005AF
:102C2A00C006C007900100E0FCA3E0FDA3E0FEA3FC
:102C3A00E0FF7808121DF2D003D002D001D000EFD5
:102C4A002BFFEE3AFEED39FDEC38FC900100121E26
:102C5A00057FB37EB81242D7E4FCFDFEC004C0056E
:102C6A00C006C007900100E0FCA3E0FDA3E0FEA3BC
:102C7A00E0FF7808121DF2D003D002D001D000EF95
:102C8A002BFFEE3AFEED39FDEC38FC900100121EE6
:102C9A00057F127ED21242D7E4FCFDFE9001041297
:102CAA001E057F147ED21242D7E4FCFDFEC004C08A
:102CBA0005C006C007900104E0FCA3E0FDA3E0FE06
:102CCA00A3E0FF7808121DF2D003D002D001D00091
:102CDA00EF2BFFEE3AFEED39FDEC38FC90010412C1
:102CEA001E057F157ED21242D7E4FCFDFEC004C049
:102CFA0005C006C007900104E0FCA3E0FDA3E0FEC6
:102D0A00A3E0FF7808121DF2D003D002D001D00050
:102D1A00EF2BFFEE3AFEED39FDEC38FC9001041280
:102D2A001E05900104E0FCA3E0FDA3E0FEA3E0FF82
:102D3A00900100E0F8A3E0F9A3E0FAA3E0FBD312C4
:102D4A001DE14039900104E0F8A3E0F9A3E0FAA3F9
:102D5A00E0FB900100E0FCA3E0FDA3E0FEA3E09B02
:102D6A00FFEE9AFEED99FDEC98FCE47B207A4EF991
:102D7A00F8C3121DE150037F01227F002290010057
:102D8A00E0F8A3E0F9A3E0FAA3E0FBA3E0FCA3E0E8
:102D9A00FDA3E0FEA3E0C39BFFEE9AFEED99FDECD6
:102DAA0098FCE47B207A4EF9F8C3121DE150037FA8
:042DBA0001227F0073
:012DBE0022F2
:10420B007D017F007ED81241B61D7F5A1241B67DCB
:10421B00071241B1E4FD0F1241B67D070F1241B6F3
:04422B000F0241B687
:1021680074FF900103F0A3F0A3F0A3F0A3F0A3F091
:1021780078097C017D01FB7A3D79107E007F201271
:102188001BA778297C017D017BFF7A3D79307E0091
:102198007F20121BA778497C017D017BFF7A3D795E
:1021A800507E007F20121BA77D017F007ED8124140
:1021B800B67B0FEB25E025E024EDF582E4343FF50E
:1021C80083740193C454F0FD7F5A7ED81241B6EB54
:1021D80025E025E024EFF582E4343FF5837401938C
:1021E800FD7F5C1241B6EB25E025E024EDF582E4A5
:1021F800343FF583E474019375F011A4FD0F124187
:10220800B6EB25E025E024EFF582E4343FF583744E
:102218000193FD0F1241B6EB25E025E024EFF5828E
:10222800E4343FF583740193FD0F1241B67D077FB7
:10223800207EC01241B67D011241B67F647E001235
:1022480041ED7F247EC01242D7EF547FFEEB25E09C
:102258002409F582E43401F583EEF0A3E4F07F2548
:102268007EC01242D7EB25E02409F582E43401F55B
:1022780083E48FF0121CAE7F261242D7EF547FFE04
:10228800EB25E02429F582E43401F583EEF0A3E49C
:10229800F07F277EC01242D7EB25E02429F582E49F
:1022A8003401F583E48FF0121CAE7F281242D7EF79
:1022B800547FFEEB25E02449F582E43401F583EEF2
:1022C800F0A3E4F07F297EC01242D7EB25E0244931
:1022D800F582E43401F583E48FF0121CAEEB25E0BF
:1022E8002409F582E43401F583E0FEA3E0FF9001C0
:1022F80003E0FCA3E0FDD3EF9DEE9C501DEB25E031
:102308002409F582E43401F583E0FFA3E09001039A
:10231800CFF0A3EFF0900100EBF0EB25E02429F5D6
:1023280082E43401F583E0FEA3E0FF900105E0FCC0
:10233800A3E0FDD3EF9DEE9C501DEB25E02429F58D
:1023480082E43401F583E0FFA3E0900105CFF0A318
:10235800EFF0900101EBF0EB25E02449F582E4343D
:1023680001F583E0FEA3E0FF900107E0FCA3E0FD98
:10237800D3EF9DEE9C501DEB25E02449F582E43413
:1023880001F583E0FFA3E0900107CFF0A3EFF09001
:102398000102EBF01BEB640760030221BB90010014
:1023A800E025E025E024EDF582E4343FF583E4748C
:1023B800019375F011A4FD7F5A7ED81241B69001A1
:1023C80000E025E025E024EFF582E4343FF583744E
:1023D8000193FD0F1241B6900100E025E025E024AD
:1023E800EFF582E4343FF583740193FD0F1241B693
:1023F800900102E025E025E024EDF582E4343FF584
:1024080083740193C454F0FF900101E025E025E0B6
:1024180024EDF582E4343FF5837401932FFD7F5D4D
:102428001241B6900101E025E025E024EFF582E4B1
:10243800343FF583740193FD0F1241B6900102E019
:1024480025E025E024EFF582E4343FF58374019319
:05245800FD0F0241B67A
:1042DE007F027EA01242D7EF5420B420037F00222B
:0242EE007F014E
:0142F00022AB
:101E42007F8B7ED21242D7EF90010CF0A3E4F07F99
:101E52008C7ED21242D790010DE02FF090010CE05F
:101E62003400F0A3E025E0F090010CE033F01241E1
:101E7200BD7FFA7E001241ED7F8B7ED21242D7EFF8
:101E82007D00FC7F8C7ED21242D7ED2FFDE43CFC1C
:101E9200ED25E0FDEC33FCE4900116F0C390010D5A
:101EA200E09D90010CE09C503F900116E004F0E0B0
:101EB200D3940550331241BD7FC87E001241ED7F9D
:101EC2008B7ED21242D7EF7D00FC7F8C1242D7ED7F
:101ED2002FFDE43CFCED25E0FDEC33FC90010CE031
:101EE200B504C6A3E0B505C17D0B1242C5E4FCFDF5
:101EF200FE900100121E057FB27EB81242D7E4FCAA
:101F0200FDFEC004C005C006C007900100E0FCA3AE
:101F1200E0FDA3E0FEA3E0FF7808121DF2D003D09B
:101F220002D001D000EF2BFFEE3AFEED39FDEC3886
:101F3200FC900100121E057FB37EB81242D7E4FC6A
:101F4200FDFEC004C005C006C007900100E0FCA36E
:101F5200E0FDA3E0FEA3E0FF7808121DF2D003D05B
:101F620002D001D000EF2BFFEE3AFEED39FDEC3846
:101F7200FC900100121E057D017F347EA01241B645
:101F82007F897ED21242D7EF900104F0A3E4F07F62
:101F92008A7ED21242D7900105E02FF0900104E030
:101FA2003400F0A3E025E0F0900104E033F07F8BF1
:101FB2001242D7EF900106F0A3E4F07F8C7ED2129A
:101FC20042D7900107E02FF0900106E03400F0A321
:101FD200E025E0F0900106E033F07F9C1242D7EF5B
:101FE200900108F0A3E4F07F9D7ED21242D79001C7
:101FF20009E02FF0900108E03400F0A3E025E0F0C2
:10200200900108E033F07F941242D7EF90010AF07A
:10201200A3E4F07F957ED21242D790010BE02FF01D
:1020220090010AE03400F0A3E025E0F090010AE01C
:1020320033F07F981242D7EF7B00FA7F997ED2125B
:1020420042D7EB2FFBE43AFAEB25E0FBEA33FA7FC7
:102052009E1242D7EF90010EF0A3E4F07F9F7ED252
:102062001242D790010FE02FF090010EE03400F001
:102072007F961242D7EF900110F0A3E4F07F977E93
:10208200D21242D7900111E02FF0900110E03400FB
:10209200F07F881242D7900112EFF07F861242D76A
:1020A200900113EFF07F871242D7900114EFF07F77
:1020B200A01242D7EF5402C313900115F07FA01271
:1020C20042D7EF5401F9900100E0FCA3E0FDA3E048
:1020D200FEA3E0FF90016C121E05900104E0FFA335
:1020E200E0900170CFF0A3EFF0900106E0FFA3E0D3
:1020F200900172CFF0A3EFF0900108E0FFA3E0900F
:102102000174CFF0A3EFF090010AE0FFA3E0900189
:1021120076CFF0A3EFF0AE02AF03A3EEF0A3EFF0A1
:1021220090010EE0FFA3E090017ACFF0A3EFF090D0
:102132000110E0FFA3E090017CCFF0A3EFF090014B
:1021420012E090017EF0900113E090017FF0900187
:1021520014E0900180F0900115E0900181F0AF0150
:05216200A3EFF07F0176
:012167002255
:102F7E00E4900100F0F9FBFD7F507EA01241B67D7A
:102F8E00020F1241B60D0F1241B6E4FD0F1241B6FB
:102F9E007DF10F1241B67F501242D7EF4402FD7FF2
:102FAE00501241B67F647E001241ED7F0C7EA0125E
:102FBE0042D7EF540260097F0C1242D7EF5401FB47
:102FCE007F507EA01242D7EF54FDFD7F501241B6C6
:102FDE007F021242D7EF5480900100F07F717EC0C5
:102FEE001242D7EF5460F96009900100E0600302CD
:102FFE00308D900195E0FC702AEBB401137D047FB7
:10300E00507EA01241B6E4FD7F551241B602312A20
:10301E00E4FD7F507EA01241B67F551241B67D036E
:10302E0002312AEC64027026EBB4010DE4FD7F50F0
:10303E007EA01241B67DF0800BE4FD7F507EA01283
:10304E0041B67DE07F551241B6E4FD02312A900172
:10305E0095E06401600302312FEBB4010DE4FD7FB6
:10306E00507EA01241B67DFC800BE4FD7F507EA009
:10307E001241B67DEC7F551241B6E4FD02312AE9CC
:10308E006420704C900195E0FC7013FD7F507EA083
:10309E001241B67D037F551241B67D3C807EECB465
:1030AE000214E4FD7F507EA01241B67D037F5512BF
:1030BE0041B6E4FD8066900195E0640170637D0485
:1030CE007F507EA01241B6E4FD7F551241B6804C72
:1030DE00E96440704C900195E0FC7011FD7F507ECC
:1030EE00A01241B67F551241B67D3C802FECB40242
:1030FE00127D047F507EA01241B6E4FD7F55124131
:10310E00B68019900195E0B40117E4FD7F507EA0C2
:10311E001241B67D0C7F551241B6E4FD7F57124128
:01312E00B6EA
:01312F00227D
:103D7000900181E0640160237F057EC01242D7EF8D
:103D80007F0530E5081242D7EF54DF80087EC0126D
:103D900042D7EF4420FD7F051241B6900182E064D6
:103DA0000160237F057EC01242D7EF7F0530E40813
:103DB0001242D7EF54EF80087EC01242D7EF441072
:073DC000FD7F051241B62250
:10406D007D437F357EA01241B67D210F1241B67D75
:10407D00040F1241B67D320F1241B67D100F124161
:10408D00B67D430F1241B67D210F1241B67D040F4F
:0F409D001241B67D320F1241B67D100F0241B6AF
:10386900900185E0FCB4010D7DFF7F437EA01241EC
:10387900B6E4FD8024EC6402702590018AE0B4016D
:103889000D7DF57F437EA01241B6E4FD800B7DE4FA
:103899007F437EA01241B67D800F7EC21241B67D64
:1038A900347F557EB01241B67D9F7F5D1241B67F50
:1038B9005F1241B67D8F7F611241B67D9F7F631292
:1038C90041B67F651241B67D347F771241B67D9F3F
:1038D9007F7F1241B67F811241B67D8F7F8312416E
:1038E900B67D9F7F851241B67F871241B690018AC6
:1038F900E0704C7D347F441241B67D9F7F4C12416C
:10390900B67F4E1241B67D8F7F501241B67D9F7FA3
:10391900521241B67F541241B67D347F661241B6C8
:103929007D9F7F6E1241B67F701241B67D8F7F7287
:103939001241B67D9F7F741241B67F761241B6223D
:10245D00E4900104F0A3F0A3F07D0B7F347EA01275
:10246D0041B67F141242CEE4FCFDFE900100121E17
:10247D00057FB27EB81242D7E4FCFDFEC004C00554
:10248D00C006C007900100E0FCA3E0FDA3E0FEA3A1
:10249D00E0FF7808121DF2D003D002D001D000EF7A
:1024AD002BFFEE3AFEED39FDEC38FC900100121ECB
:1024BD00057FB37EB81242D7E4FCFDFEC004C00513
:1024CD00C006C007900100E0FCA3E0FDA3E0FEA361
:1024DD00E0FF7808121DF2D003D002D001D000EF3A
:1024ED002BFFEE3AFEED39FDEC38FC900100121E8B
:1024FD00057D017F347EA01241B6E47BE87A03F9B5
:10250D00F8900100E0FCA3E0FDA3E0FEA3E0FF12C4
:10251D001D4F90018BE014601104702E7C007D0323
:10252D00121C47900169E0FD800EEF25E0FFEE33B0
:10253D00FE900169E0FD7C00121C59900185E0FDC3
:10254D007C00121C59900104EFF0900104E0240F5F
:10255D00F0E0C3941950037419F07D387F3A7EB0C2
:10256D001241B67D010F1241B6900104E0FFC394F4
:10257D00BB5015EFC39450400F7D187F3E1241B6EE
:10258D009001057401F08061900104E0FFC3945047
:10259D005017EFC3942840117D087F3E7EB0124145
:1025AD00B69001057402F08040900104E0FFC394E1
:1025BD00285017EFC3941440117D287F3E7EB01232
:1025CD0041B69001057404F0801F900104E0FFC333
:1025DD0094145015EFC3940A400F7D387F3E7EB0A2
:1025ED001241B69001057408F07D107F3F7EB01248
:1025FD0041B2900105E0FF900104E08FF0A4AEF030
:10260D007803C333CE33CED8F9FF7C007D1B121C6B
:10261D0059AD077F417EB01241B67DDF7F0F7E90B1
:10262D001241B67F447EB01242D7EF54BFFD7F44B6
:10263D001241E67DFF7F0F7E901241B67F447EB042
:10264D001242D7EF4440FD7F441241B67D1A12422B
:10265D00C5E4FCFDFE900190121E057FB27EB812FE
:10266D0042D7E4FCFDFEC004C005C006C0079001C2
:10267D0090E0FCA3E0FDA3E0FEA3E0FF7808121DAF
:10268D00F2D003D002D001D000EF2BFFEE3AFEEDD9
:10269D0039FDEC38FC900190121E057FB37EB81207
:1026AD0042D7E4FCFDFEC004C005C006C007900182
:1026BD0090E0FCA3E0FDA3E0FEA3E0FF7808121D6F
:1026CD00F2D003D002D001D000EF2BFFEE3AFEED99
:1026DD0039FDEC38FC900190121E057D017F347E92
:1026ED00A01241B6E47F04FE1DFC900190E0F8A31A
:1026FD00E0F9A3E0FAA3E0FB121CC4900106EFF091
:01270D0022A9
:10340D00E47BE87A03F9F8900190E0FCA3E0FDA3DA
:10341D00E0FEA3E0FF121D4FAC07EC75F014842401
:10342D0004FBEC75F012842406FAEC75F0068404A6
:10343D00900100F0EC75F00A8404A3F0EC75F00C2B
:10344D00842408A3F0EC75F01984A3F0EC75F00555
:10345D0084F97F447EB01242D7EF4480FD7F441241
:10346D0041B67D807EA01241B67F491241B6E4FD82
:10347D00FF7EC21241B27F561241B67D0F7F2012E0
:10348D0041B67DFF7F251241B67F2C1241B69001CA
:10349D0002E0FD7F221241B6900103E0FD0F1241C3
:1034AD00B6AD010F1241B6AD027F2F1241B6AD037D
:1034BD000F1241B67DAA0F1241B6AD027F521241D5
:1034CD00B6AD030F1241B67DAA0F1241B690018A17
:1034DD00E07028AD037F261241B6AD020F1241B642
:1034ED007DAA7F2E1241B6AD027F321241B6AD03D9
:1034FD000F1241B67DAA7F511241B6EC75F00A84C8
:10350D002408FD7F287EC21241B6EB2AFF900100F0
:10351D00E02FFD7F2A1241B67D107F1B1241B67D33
:0B352D00507F1D1241B67F2D0241B6F9
:10270E00900172E0FD7F0C7EC21241B6900173E023
:10271E00FD0F1241B6900180E0FF90017FE02FFD8A
:10272E007F351241B690017CE0FD7F061241B690D6
:10273E00017DE0FD0F1241B67D557F0F1241B6901F
:10274E000185E064016003022803900196E024F8FD
:10275E0060432408600302299B900172E0FD7F38DC
:10276E007EC21241B6900173E0FD0F12418B9001B3
:10277E008BE0FC700B7D267F171241B67D3E80707C
:10278E00EC6401600302299B7D247F177EC21241F7
:10279E00B67D1C805B900172E0FD7F387EC21241D7
:1027AE00B6900173E0FD0F1241B6900180E0FF90EC
:1027BE00017FE02F14FD7F041241B67D010F1241FF
:1027CE00B61D7F081241B60D1241AD90018BE0FC93
:1027DE00700B7D267F171241B67D248013EC6401A9
:1027EE00600302299B7D247F177EC21241B67D1E97
:1027FE007F12022998900172E0FEA3E07802CEC308
:10280E0013CE13D8F9EEFD7F107EC21241B69001A1
:10281E0072E0FEA3E07802CEC313CE13D8F9FD7F8B
:10282E00117EC21241B6900196E024F87003022880
:10283E00DE2408600302299B900172E0C313FEEEB2
:10284E00FD7F387EC21241B6900172E0C313A3E041
:10285E0013FD0F7EC212418B900172E0C313FEEE88
:10286E00FD7F367EC21241B6900172E0C313A3E023
:10287E0013FD0F7EC21241B690017FE0FD7F57120D
:10288E0041B6900180E0FD0F1241B60F1241A390A8
:10289E00018BE0FC70187DA67F171241B67F4C129B
:1028AE0041B67D3E7F121241B67F5D022998EC64DF
:1028BE0001600302299B7DA47F177EC21241B67F61
:1028CE004C1241B67D1C7F121241B67F5D022998D3
:1028DE00900172E0C313FEEEFD7F387EC21241B648
:1028EE00900172E0C313A3E013FD0F7EC21241B636
:1028FE00900180E0FF90017FE02F14FD7F041241D4
:10290E00B67D010F1241B61D7F081241B60D124160
:10291E00AD900172E0C313FEEEFD7F367EC2124112
:10292E00B6900172E0C313A3E013FD0F7EC21241F5
:10293E00B6900180E0FF90017FE02F14FD7F5712CB
:10294E0041B67D010F1241B61D0F1241B60D124157
:10295E00AD90018BE0FC70177DA67F171241B67FFC
:10296E004C1241B67D247F121241B67F5D801BEC66
:10297E00B4011A7DA47F177EC21241B67F4C12415C
:0E298E00B67D1E7F121241B67F5D1241B62249
:10376D00E4FD7F1C7EC21241B67D807F141241B6EE
:10377D00900169E0147003023823146068146034FA
:10378D00146003023856900196E0FF90016AE04FF5
:10379D00FD7F017EC21241B6900196E0FF90016A55
:1037AD00E04FFD7F561241B67D017F021241B67D7D
:1037BD00A002385290016AE04430FF900196E04F2C
:1037CD00FD7F017EC21241B690016AE04430FF9048
:1037DD000196E04FFD7F561241B67D017F021241E9
:1037ED00B67D90806090016AE04420FF900196E0E4
:1037FD004FFD7F017EC21241B690016AE04420FF69
:10380D00900196E04FFD7F561241B67D027F021268
:10381D0041B67D58802F90016AE04410FF900196CB
:10382D00E04FFD7F017EC21241B690016AE0441067
:10383D00FF900196E04FFD7F561241B67D037F024A
:10384D001241B6E4FD0F1241B67F147E001241ED18
:0C385D0090016BE0FD7F007EC20241B6CE
:103EB700E4FD7F277EB81241B67DC07F007EB01239
:103EC70041B6E4FD7F8C1241B61241AD7D7F7F067E
:103ED7007E901241B67D387F3A7EB01241B6E4FD3E
:103EE7007F017EC21241B67F561241B67DBE7F0A60
:0E3EF7007E901241B6E4FD7F057EC00241B60A
:0C3F05007E001241ED900194E0FFE4FD0D
:103F1100AC05EF6008E4FD7F8C7EB080317D707F61
:103F21008C7EB01241B67F467EA01242D7EF44800C
:103F3100FD7F461241B6EC7F4860081242D7EF443C
:103F41000480087EA01242D7EF54FBFD7F48124146
:023F5100B62296
:1040E90090019CE0FD7F0C7ED21241B690019DE0CB
:1040F900FD0F1241B690019EE0FD0F1241B69001ED
:104109009FE0FD0F1241B69001A0E0FD0F1241B6EC
:094119009001A1E0FD0F0241B686
:104303007D4F7F1F7EB01241B67D2E7F2E0241B6B8
:102DBF0090019A7401F07F64123F05E4FD7F067E57
:102DCF00C01241B6123CAD1240E9123FA0123F5360
:102DDF0012420B123EB7123B461243037D017F3462
:102DEF007EA01241B67F2C7E011241ED7D087F0639
:102DFF007EC01241B67FF47E011241EDE49001973F
:102E0F00F0900197E0703112402DEF602590019AFC
:102E1F00E0B4010E123B46123FA09001977401F0EF
:102E2F008016122BFAEF60028008123A21EF600829
:102E3F0080009001977404F0900197E06404703261
:102E4F0090019AE07027123EB77DFB7F077E9012AC
:102E5F0041B6123F0A7DFF7F077E901241B6900167
:102E6F009A7401F0E4A3F0124313124303E49001A8
:102E7F0097F0900197E064017056123538EF6009B2
:102E8F00123E18124158EF70F1124158EF70411273
:102E9F00420B123E6812299C123949EF600612212B
:102EAF0068123E687F147E001241ED124158EF60A8
:102EBF00089001977401F080061242DEEF70E51260
:102ECF0040AC1241BDE4900199F09001977402F06B
:102EDF00900197E0B4021C7FFA7E001241ED121EA2
:102EEF0042EF600FE490019AF0900198F0900197F3
:102EFF007403F0900197E064036003022E101241F7
:102F0F002212406D12386912245D12340D90019611
:102F1F00E0702A900194E0FF7D01123F117F321281
:102F2F003F057F787E001241ED900194E0FF7D0117
:102F3F00123F117F967E001241ED120003122F7E79
:102F4F0012270E123D70900196E0B4080F90019475
:102F5F00E0FF7D01123F117FC8123F0512376D123E
:0F2F6F003C41E4900197F090019B04F0022E107A
:1033EC0057016C00030D40046204380021000A00F0
:1033FC000107D007803020000101430169040760F8
:10422F00E4900183F0900194F090018A04F09001E2
:10423F0085F0E4900195F090018BF0900196F002DB
:02424F002DBF81
:10425100FFFF000000000000FFFF00000000000061
:0E426100FFFF000000000000FFFF0000000053
:103CAD007D997F627E901241B67DF07F317EA012AC
:103CBD0041B67D207F2E7EB01241B6E4FD7F297E78
:103CCD00B01241B67D487F307EB01241B67D057F82
:103CDD00327EB01241B67D557F217EB81241B67D40
:103CED00407F3A7EB81241B67D117F837ED212415C
:103CFD00B67D417F087EB81241B67DF37F927EA0DE
:033D0D000241B6BA
:10415800E47DFE7F037E901241B67F057E0012410A
:10416800ED7DFF7F037E901241B67F0A7E001241EB
:10417800ED7FB07EB81242D7EF544070037F012222
:024188007F00B6
:01418A002212
:103FA0007DBF7F927EB01241B6E4FD7F217EB012CC
:103FB00041B67DC17F227EB01241B67D097F287E49
:103FC000B01241B67D2C7F257EB01241B67D7F7F39
:103FD0000F7E901241B67F0A7E001241ED7DFF7F79
:0D3FE0000F7E901241B67F0A7E000241ED77
:094313007DC07F217EB00241B69D
:103538007D017F347EA01241B67F0A7E001241EDE4
:103548007FB17EB81242D7E4FCFDFE90018C121EBA
:10355800057FB27EB81242D7E4FCFDFEC004C00568
:10356800C006C00790018CE0FCA3E0FDA3E0FEA329
:10357800E0FF7808121DF2D003D002D001D000EF8E
:103588002BFFEE3AFEED39FDEC38FC90018C121E53
:10359800057FB37EB81242D7E4FCFDFEC004C00527
:1035A800C006C00790018CE0FCA3E0FDA3E0FEA3E9
:1035B800E0FF7808121DF2D003D002D001D000EF4E
:1035C8002BFFEE3AFEED39FDEC38FC90018C121E13
:1035D80005E47F207E4EFDFC90018CE0F8A3E0F925
:1035E800A3E0FAA3E0FBC3121DE140177F687EA7A2
:1035F8007D047C0090018CE0F8A3A3A3E0D3121D06
:10360800E140037F00227F887E017D037C009001DA
:103618008CE0F8A3E0F9A3E0FAA3E0FBC3121DE1F4
:1036280040047D4780227F007E777D017C009001E9
:103638008CE0F8A3E0F9A3E0FAA3E0FBC3121DE1D4
:1036480050047D7780027D677F2A7EB01241B67D67
:0B365800427F2B7EB01241B67F0122A2
:103E18007D7F7F0F7E901241B67F0A7E001241EDB2
:103E28007DFF7F0F7E901241B67F0A7E001241ED22
:103E38007D147F147EB81241B67F017E001241EDD9
:103E48007D947F147EB81241B67F017E001241ED49
:103E58007DB47F147EB81241B67F0A7E000241ED20
:1040AC007DFB7F107E901241B67DFB7F077E9012C8
:1040BC0041B67DDF7F087E901241B67F0A7E0012EA
:1040CC0041ED7DFF7F087E901241B67DFF7F077E1C
:0D40DC00901241B67DFF7F107E900241B62C
:1041BD007DFE7F0B7E901241B67F0A7E001241ED8F
:1041CD007D3F7F0A7E901241B67F0A7E001241ED3F
:0941DD007DBF7F0A7E900241B60D
:103E6800E4FD7F1F7EB01241B6E4FD7F207EB012D4
:103E780041B67DBF7F0F7E901241B67DFE7F0D7EDD
:103E8800901241B67DEF7F037E901241B67F0A7E85
:103E9800001241ED7DFF7F0D7E901241B67DFF7FC0
:0F3EA8000F7E901241B67DFF7F037E900241B6E0
:10299C0074FF900100F0A3F0A3F0A3F0A3F0A3F058
:1029AC0078067C017D01FB7A4279517E007F08120A
:1029BC001BA7780E7C017D017BFF7A4279597E0042
:1029CC007F08121BA778167C017D017BFF7A427968
:1029DC00617E007F08121BA7E490011EF0A3F0A3F8
:1029EC00F0A3F07FA07E867D01FC90018CE0F8A323
:1029FC00E0F9A3E0FAA3E0FBC3121DE14003022BB4
:102A0C00F07D0F7F277EB81241B6E490011EF09046
:102A1C00011EE0FFC39404748094804003022BC613
:102A2C00EFC454F0FD7F297EB81241B690011EE030
:102A3C00C454F0FD7F2A7EB81241B690011EE0C44A
:102A4C0054F0FD7F2B7EB81241B67D077F207EC0EF
:102A5C001241B67D017F207EC01241B67F327E00CE
:102A6C001241ED7F247EC01242D7EF547FFE9001BD
:102A7C001EE025E02406F582E43401F583EEF0A394
:102A8C00E4F07F257EC01242D790011EE025E024A1
:102A9C0006F582E43401F583E48FF0121CAE7F2638
:102AAC007EC01242D7EF547FFE90011EE025E02439
:102ABC000EF582E43401F583EEF0A3E4F07F277E7B
:102ACC00C01242D790011EE025E0240EF582E434BA
:102ADC0001F583E48FF0121CAE7F287EC01242D722
:102AEC00EF547FFE90011EE025E02416F582E434BD
:102AFC0001F583EEF0A3E4F07F297EC01242D7905B
:102B0C00011EE0FD25E02416F582E43401F583E492
:102B1C008FF0121CAEED25E02406F582E43401F5AD
:102B2C0083E0FEA3E0FF900100E0FCA3E0FDD3EF07
:102B3C009DEE9C501290011EE0FD900100EEF0A362
:102B4C00EFF090011FEDF090011EE025E0240EF552
:102B5C0082E43401F583E0FEA3E0FF900102E0FC87
:102B6C00A3E0FDD3EF9DEE9C501290011EE0FD9072
:102B7C000102EEF0A3EFF0900120EDF090011EE0C9
:102B8C0025E02416F582E43401F583E0FEA3E0FF92
:102B9C00900104E0FCA3E0FDD3EF9DEE9C5012905D
:102BAC00011EE0FD900104EEF0A3EFF0900121ED89
:102BBC00F090011EE004F0022A1B90011FE0C454A7
:102BCC00F0FD7F297EB81241B6900120E0C454F08C
:102BDC00FD7F2A7EB81241B6900121E0C454F0FD6D
:0D2BEC007F2B8004E4FD7F277EB81241B6E8
:012BF90022B9
:1039490078007C017D017BFF7A4279697E007F06E0
:10395900121BA77D077F207EC01241B67D017F2003
:103969007EC01241B67F647E001241ED7F247EC085
:103979001242D7EF547F7F00FEC006C0077F257E25
:10398900C01242D7EFFDD0E02DFED0E03400900107
:1039990000F0A3CEF07F267EC01242D7EF547F7F7E
:1039A90000FEC006C0077F277EC01242D7EFFDD0B8
:1039B900E02DFED0E03400900102F0A3CEF07F2884
:1039C9007EC01242D7EF547F7F00FEC006C0077F3A
:1039D900297EC01242D7EFFDD0E02DFED0E03400A1
:1039E900900104F0A3CEF0D3900101E0940090017E
:1039F90000E09400501C900103E09400900102E063
:103A09009400500E900105E09400900104E09400A8
:073A190040037F01227F0042
:013A20002283
:103AC60002422FE493A3F8E493A34003F68001F2A5
:103AD60008DFF48029E493A3F85407240CC8C33301
:103AE600C4540F4420C8834004F456800146F6DFD0
:103AF600E4800B01020408102040809032C5E47E69
:103B0600019360BCA3FF543F30E509541FFEE493C4
:103B1600A360010ECF54C025E060A840B8E493A38B
:103B2600FAE493A3F8E493A3C8C582C8CAC583CAB6
:103B3600F0A3C8C582C8CAC583CADFE9DEE780BE6E
:01340C0000BF
:101AD700E709F608DFFA8046E709F208DFFA803EF1
:101AE70088828C83E709F0A3DFFA8032E309F608DE
:101AF700DFFA8078E309F208DFFA807088828C8346
:101B0700E309F0A3DFFA806489828A83E0A3F608F9
:101B1700DFFA805889828A83E0A3F208DFFA804CD3
:101B270080D280FA80C680D4806980F280338010AA
:101B370080A680EA809A80A880DA80E280CA803313
:101B470089828A83ECFAE493A3C8C582C8CCC5838B
:101B5700CCF0A3C8C582C8CCC583CCDFE9DEE7805B
:101B67000D89828A83E493A3F608DFF9ECFAA9F0DA
:101B7700EDFB2289828A83ECFAE0A3C8C582C8CC30
:101B8700C583CCF0A3C8C582C8CCC583CCDFEADE49
:101B9700E880DB89828A83E493A3F208DFF980CCAB
:101BA70088F0EF60010E4E60C388F0ED2402B404A4
:101BB7000050B9F582EB2402B4040050AF2323454B
:061BC7008223901B27732E
:101BCD00BB010689828A83E0225002E722BBFE0216
:091BDD00E32289828A83E4932249
:101BE600BB010CE58229F582E5833AF583E02250B4
:101BF60006E92582F8E622BBFE06E92582F8E222FE
:0D1C0600E58229F582E5833AF583E4932217
:101C1300BB010689828A83F0225002F722BBFE01B0
:021C2300F322AA
:101C2500F8BB010DE58229F582E5833AF583E8F0F5
:101C3500225006E92582C8F622BBFE05E92582C8A1
:021C4500F22289
:101C4700EF8DF0A4A8F0CF8CF0A428CE8DF0A42EB1
:021C5700FE226B
:101C5900BC000BBE0029EF8DF084FFADF022E4CC6F
:101C6900F875F008EF2FFFEE33FEEC33FCEE9DEC38
:101C7900984005FCEE9DFE0FD5F0E9E4CEFD22ED7E
:101C8900F8F5F0EE8420D21CFEADF075F008EF2FC8
:101C9900FFED33FD4007985006D5F0F222C398FDB9
:051CA9000FD5F0EA2256
:101CAE00C5F0F8A3E028F0C5F0F8E58215827002C1
:061CBE001583E038F0225E
:101CC400E88FF0A4CC8BF0A42CFCE98EF0A42CFCBF
:101CD4008AF0EDA42CFCEA8EF0A4CDA8F08BF0A43D
:101CE4002DCC3825F0FDE98FF0A42CCD35F0FCEB9C
:101CF4008EF0A4FEA9F0EB8FF0A4CFC5F02ECD3961
:0F1D0400FEE43CFCEAA42DCE35F0FDE43CFC22CD
:101D130075F008758200EF2FFFEE33FECD33CDCC87
:101D230033CCC58233C5829BED9AEC99E58298400A
:101D33000CF582EE9BFEED9AFDEC99FC0FD5F0D6E7
:101D4300E4CEFBE4CDFAE4CCF9A88222B800C1B911
:101D53000059BA002DEC8BF084CFCECDFCE5F0CB4F
:101D6300F97818EF2FFFEE33FEED33FDEC33FCEB88
:101D730033FB10D703994004EB99FB0FD8E5E4F943
:101D8300FA227818EF2FFFEE33FEED33FDEC33FC30
:101D9300C933C910D7059BE99A4007EC9BFCE99A24
:101DA300F90FD8E0E4C9FAE4CCFB2275F010EF2F69
:101DB300FFEE33FEED33FDCC33CCC833C810D70769
:101DC3009BEC9AE899400AED9BFDEC9AFCE899F8A4
:0E1DD3000FD5F0DAE4CDFBE4CCFAE4C8F92237
:101DE100EB9FF5F0EA9E42F0E99D42F0E89C45F058
:011DF10022CF
:101DF200E8600FEFC333FFEE33FEED33FDEC33FC4F
:031E0200D8F122F2
:0C1E0500ECF0A3EDF0A3EEF0A3EFF02250
:101E1100A8828583F0D083D082121E28121E281238
:101E21001E28121E28E473E493A3C583C5F0C5835D
:101E3100C8C582C8F0A3C583C5F0C583C8C582C81B
:011E4100227E
:00000001FF
